{
  "abi": [
    {
      "anonymous": false,
      "inputs": [
        {
          "indexed": true,
          "internalType": "address",
          "name": "dao",
          "type": "address"
        },
        {
          "indexed": true,
          "internalType": "address",
          "name": "creator",
          "type": "address"
        },
        {
          "indexed": false,
          "internalType": "string",
          "name": "subdomain",
          "type": "string"
        }
      ],
      "name": "DAORegistered",
      "type": "event"
    },
    {
      "inputs": [
        {
          "internalType": "address",
          "name": "_dao",
          "type": "address"
        },
        {
          "internalType": "address",
          "name": "_creator",
          "type": "address"
        },
        {
          "internalType": "string",
          "name": "_subdomain",
          "type": "string"
        }
      ],
      "name": "emitTestEvent",
      "outputs": [],
      "stateMutability": "nonpayable",
      "type": "function"
    }
  ],
  "bytecode": {
    "object": "0x608060405234801561001057600080fd5b5061021d806100206000396000f3fe608060405234801561001057600080fd5b506004361061002b5760003560e01c8063a9682a6a14610030575b600080fd5b61004361003e3660046100c7565b610045565b005b816001600160a01b0316836001600160a01b03167fbc0b11fe649bb4d67c7fb40936163e5423f45c3ae83fbd8f8f8c75e1a3fa97af836040516100889190610199565b60405180910390a3505050565b80356001600160a01b03811681146100ac57600080fd5b919050565b634e487b7160e01b600052604160045260246000fd5b6000806000606084860312156100dc57600080fd5b6100e584610095565b92506100f360208501610095565b9150604084013567ffffffffffffffff8082111561011057600080fd5b818601915086601f83011261012457600080fd5b813581811115610136576101366100b1565b604051601f8201601f19908116603f0116810190838211818310171561015e5761015e6100b1565b8160405282815289602084870101111561017757600080fd5b8260208601602083013760006020848301015280955050505050509250925092565b600060208083528351808285015260005b818110156101c6578581018301518582016040015282016101aa565b506000604082860101526040601f19601f830116850101925050509291505056fea2646970667358221220e4cbe68050186105603b45d4bdd1c257e9491e95e05edbdb1251854e8fbd211364736f6c63430008110033",
    "linkReferences": {}
  },
  "methodIdentifiers": {
    "emitTestEvent(address,address,string)": "a9682a6a"
  },
  "id": 12
}